:020000020000FC
:020000001EC11F
:1000400034C108E304B92B982C982D98EF93FF93B3
:100050000F931F93E0E0F1E000E016E401931A959E
:10006000E9F70F911F91FF91EF9108950F921F9261
:100070000F931F934F93EF93FF930FB70F93F1E0FD
:10008000E0E005E0089FE00D0AE041910E94670072
:10009000063011F47E961C9A0A95B9F740E882FD65
:1000A000429580FD469581FF02C0469546950E9487
:1000B00067001C9A8A950CF486E00F910FBFFF91A0
:1000C000EF914F911F910F911F900F90189518E08D
:1000D0002B9840FB0EF42B9A1D9A1D9A46951A9563
:1000E000B9F708954BE054E163E036D008950F93DB
:1000F0001F93042F152F643029F41A950AF019C0A4
:1001000017E217C0633031F41395183209F011C0AB
:1001100010E00FC0613029F40A950AF00AC00DE022
:1001200008C0623031F403950E3009F002C000E0DF
:1001300000C00E94A100402F512F0ED01F910F919F
:1001400008954398CF93DF933F930ED030E03883E8
:100150003F91CF91DF910895CF93DF9305D0012890
:100160000882DF91CF9108950F932F923F92242E12
:10017000352EC0E0D1E0222019F025962A94FBCF3D
:1001800008E0301618F0301A2196FBCF01E033203A
:1001900019F0000F3A94FBCF0880102E3F902F905B
:1001A0000F9108950FE010EF00000BB900001AB98D
:1001B000089500004A9B15C04B9B03C0499B21C07A
:1001C000089510EF0FE000001BB900000AB900000D
:1001D0004F9B33C04E9B2BC04D9B2FC04C9B2DC0C3
:1001E000089510EF0FE000001BB900000AB90000ED
:1001F0004F9B17C04E9B21C04D9B16C04C9B1DC0F2
:10020000089510EF0FE000001BB900000AB90000CC
:100210004F9B13C04E9B0EC04D9B0FC04C9B0DC0FF
:10022000089561E0BFDF089562E0BCDF089563E0F8
:10023000B9DF089564E0B6DF0895B4DF089508E0FB
:100240000EBF0FEF0DBF3B9A43983A9A4298F9DEE2
:10025000A9DFFCDE70E07093800073E075BD76E08E
:1002600076BD71E070936E0000E00093800004E0C2
:10027000009381000FE0009385000FEF009384004E
:1002800001E000936F0078940E944C010E9472007C
:1002900090DF18D02CDFFCCF0AEAE2E2F1E011E0B7
:1002A00001931A95C9F700E00895429876E076BD6B
:1002B000DDDE18950FE0009385000FEF00938400BA
:1002C00016DF189506E91FEF22E32A95F1F71A9534
:0802D000D9F70A95C1F7089562
:00000001FF
