:020000020000FC
:02000000C0C17D
:10004000D8C10F9308E304B92B982C982D980F91E1
:100050000895EF93FF930F931F93E0E0F1E000E02A
:1000600016E401931A95E9F70F911F91FF91EF9113
:1000700008950F921F920F931F934F93EF93FF9347
:100080000FB70F93F1E0E0E005E0089FE00D0AE014
:1000900041910E946A00063011F47E961C9A0A95DE
:1000A000B9F740E882FD429580FD469581FF02C088
:1000B000469546950E946A001C9A8A950CF486E043
:1000C0000F910FBFFF91EF914F911F910F911F90D3
:1000D0000F90189518E02B9840FB0EF42B9A1D9A60
:1000E0001D9A46951A95B9F7089541E056E060E0EB
:1000F00035D008950F931F93042F152F643029F4E2
:100100001A950AF019C017E217C0633031F413953D
:10011000183209F011C010E00FC0613029F40A95BF
:100120000AF00AC00DE008C0623031F403950E30C9
:1001300009F002C000E000C00E94A400402F512F2F
:100140000DD01F910F9108954398CF93DF930FD057
:10015000109401200882CF91DF910895CF93DF930F
:1001600006D09CD001280882DF91CF9108950F938B
:100170002F923F92242E352EC0E0D1E0222019F09C
:1001800025962A94FBCF08E0301618F0301A2196F5
:10019000FBCF01E0332019F0000F3A94FBCF088029
:1001A000102E3F902F900F9108950F931F930FE003
:1001B00010EF00000BB900001AB90F911F910895BC
:1001C00000004A9B17C04B9B05C0499B23C0489B1E
:1001D00031C0089510EF0FE000001BB900000AB90C
:1001E00000004F9B49C04E9B3BC04D9B45C04C9B64
:1001F00043C0089510EF0FE000001BB900000AB9DA
:1002000000004F9B27C04E9B37C04D9B26C04C9B88
:1002100033C0089510EF0FE000001BB900000AB9C9
:1002200000004F9B29C04E9B1EC04D9B25C04C9B80
:1002300023C0089510EF0FE000001BB900000AB9B9
:1002400000004F9B13C04E9B17C04D9B15C04C9B8D
:1002500010C0089561E0A9DF089562E0A6DF089567
:1002600063E0A3DF089564E0A0DF089565E09DDF0B
:1002700008950E94290085C098DF0895EF93FF93A9
:100280000F931F93E0E0F1E015E00FEF01931A9553
:10029000E9F71F910F91FF91EF9108950F931F932D
:1002A00060D0002D112D0123002319F40F911F910F
:1002B0000895DFCF6F933AE09FE30E9461016F9151
:1002C00008950F931F93132F0E947001312F192F40
:1002D0000E947901912F0F911F910E94840108952E
:1002E0000BE010271D3008F4089515231D30E8F7A2
:1002F0000895052F069500951027183208F40895E3
:1003000014231832E8F708952F923F92232E392EA6
:10031000A0E0B1E0222019F015962A94FBCF08E066
:10032000301618F0301A1196FBCF01E0332019F087
:10033000000F3A94FBCF0C90102E0E94A00108955C
:100340000F931F93002D112D0123002339F4012851
:100350000C922F903F900F911F9108952F903F90F6
:10036000B0CF0F931F93032F192F401721F451176C
:1003700011F40E94BE010F911F9108950E94610126
:10038000089508E00EBF0FEF0DBF3B9A43983A9ACD
:10039000429857DE0ADF5DDE00E00093800003E054
:1003A00005BD06E006BD01E000936E0000E000938D
:1003B000800004E0009381000FE0009385000FEFC0
:1003C0000093840001E000936F0078940E943E0146
:1003D0000E9475000E945A01F3DE17D08BDEFCCF1D
:1003E0000AEAE2E2F1E011E001931A95C9F700E0B0
:1003F0000895429876E076BD3CDE18950FE00093B4
:1004000085000FEF00938400189506E91FEF22E3A3
:0E0410002A95F1F71A95D9F70A95C1F70895C4
:00000001FF
