:020000020000FC
:020000001AC024
:100034001AC008E00EBF0FEF0DBF239A249A259A29
:100044002B982C982D98E0E0F1E000E016E421D004
:1000540000E00093800003E00093810001E000933E
:100064006F00789455C00F921F920F931F932F9394
:100074003F93EF93FF934DD02395273008F020E072
:10008400FF91EF913F912F911F910F911F900F902E
:10009400189501931A95E9F702D020E0089500E03D
:1000A40010E0202E48E2312E04D013954A95D9F75A
:1000B4000895CF93DF9311D001280882DF91CF9167
:1000C40008950F93CF93DF9308D00FEF10260120EC
:1000D4000882DF91CF910F9108950F932F923F9251
:1000E4000AE0209EC0E0D1E0C00DD11D08E030162A
:1000F40018F0301A2196FBCF00E8332019F006954A
:100104003A94FBCF0880102E3F902F900F910895C2
:10011400FFCF4AE0249FE0E0F1E0E00DF11DEE2F77
:10012400FF2F359635E0019118E0001F10F42B9A4B
:1001340001C02B982D9A2D981A95B9F73A9599F7ED
:1001440001E0000F2A951AF0000F2A95EAF718E04B
:10015400001F10F42B9A01C02B982D9A2D981A95F4
:0A016400B9F72C9A00002C980895BA
:00000001FF
