:020000020000FC
:02000000F2C14B
:100040000AC20F9308E304B92B982C982D980F91AE
:100050000895EF93FF930F931F93E0E0F1E000E02A
:1000600016E401931A95E9F70F911F91FF91EF9113
:1000700008950F921F920F931F934F93EF93FF9347
:100080000FB70F93F1E0E0E005E0089FE00D0AE014
:1000900041910E946A00063011F47E961C9A0A95DE
:1000A000B9F740E882FD429580FD469581FF02C088
:1000B000469546950E946A001C9A8A950CF486E043
:1000C0000F910FBFFF91EF914F911F910F911F90D3
:1000D0000F90189518E02B9840FB0EF42B9A1D9A60
:1000E0001D9A46951A95B9F7089547E050E063E0E8
:1000F00035D008950F931F93042F152F643029F4E2
:100100001A950AF019C017E217C0633031F413953D
:10011000183209F011C010E00FC0613029F40A95BF
:100120000AF00AC00DE008C0623031F403950E30C9
:1001300009F002C000E000C00E94A400402F512F2F
:100140000DD01F910F9108954398CF93DF9313D053
:10015000109401200882CF91DF910895CF93DF930F
:100160000F921F9208D0B0D0012808820F901F90E4
:10017000DF91CF9108950F932F923F92242E352E29
:10018000C0E0D1E0222019F025962A94FBCF08E0A8
:10019000301618F0301A2196FBCF01E0332019F009
:1001A000000F3A94FBCF0880102E3F902F900F91B4
:1001B00008950F931F930FE010EF00000BB900009C
:1001C0001AB90F911F91089500004A9B17C04B9BCD
:1001D00005C0499B23C0489B31C0089510EF0FE034
:1001E00000001BB900000AB900004F9B47C04E9B9E
:1001F0003BC04D9B43C04C9B41C0089510EF0FE0A6
:1002000000001BB900000AB900004F9B27C04E9B9D
:1002100035C04D9B26C04C9B31C0089510EF0FE0B8
:1002200000001BB900000AB900004F9B27C04E9B7D
:100230001EC04D9B23C04C9B21C0089510EF0FE0C2
:1002400000001BB900000AB900004F9B13C04E9B71
:1002500015C04D9B13C04C9B10C0089561E0A9DFF1
:10026000089562E0A6DF089563E0A3DF089564E0E7
:10027000A0DF089565E09DDF0895B5C09ADF089579
:10028000EF93FF930F931F93E0E0F1E015E00FEF82
:1002900001931A95E9F70895E0E0F1E0F29612E093
:1002A00001931A95E9F7089521E01CE02193349613
:1002B000220F203839F01A95C9F71F910F91FF913D
:1002C000EF91089521E008950F931F93002D112DB4
:1002D0000123002319F40F911F9108950F911F918D
:1002E00072D0213019F42030B1F40895C6CF6F9345
:1002F0003AE09FE325E80E948E016F9108950F93E5
:100300001F93042D152D0123002341F445284C9201
:100310000F911F9108950E948E0108950F931F93CE
:100320000E94B301132F0E949F01312F192F0E94A9
:10033000A801912F0F911F910E94C1010895069568
:1003400010271D3008F4089515231D30E8F708958F
:10035000022F069500951027183208F408951523EA
:100360001832E8F708951F930F93022F122F269546
:1003700000FB26F916F9102716FB25F90F911F919E
:1003800008952F923F92AF93BF93232E392EA0E072
:10039000B1E0222019F015962A94FBCF08E0301620
:1003A00018F0301A1196FBCF01E0332019F0000F3E
:1003B0003A94FBCF4C90502E0E947F01BF91AF9199
:1003C0003F902F9008950F931F93032F192F4017DD
:1003D00031F4511721F421E00F911F91089520E08D
:1003E0000F911F91089508E00EBF0FEF0DBF3B9ACC
:1003F00043983A9A429825DEDCDE2BDE00E000933B
:10040000800003E005BD06E006BD01E000936E003C
:1004100000E00093800004E0009381000FE000936F
:1004200085000FEF0093840001E000936F00789443
:100430000E9440010E9475000E947701C5DE17D01E
:1004400059DEFCCF0AEAE2E2F1E011E001931A95ED
:10045000C9F700E00895429876E076BD0ADE189567
:100460000FE0009385000FEF00938400189506E9D4
:100470001FEF22E32A95F1F71A95D9F70A95C1F7EC
:020480000895DD
:00000001FF
