:020000020000FC
:020000001AC024
:1000340087C03A9A3B9A429A439A219A299A009104
:1000440080000C7F0093800000918100017E01609C
:100054000093810000916F00016000936F0000C065
:100064000FE010EF0BB91AB900004B9B0BC04A9B71
:1000740017C0499B23C0489B2FC000C0429A439A93
:10008400F894EECF00EF0BB90FE00AB900004F9BD4
:1000940031C04E9B33C04D9B35C04C9B35C0EECF19
:1000A40000EF0BB90FE00AB900004F9B2FC04E9B25
:1000B40031C04D9B31C04C9B31C0E0CF00EF0BB938
:1000C4000FE00AB900004F9B2BC04E9B2BC04D9BE9
:1000D4002BC04C9B2BC0D2CF00EF0BB90FE00AB959
:1000E40000004F9B25C04E9B25C04D9B25C04C9BBB
:1000F40025C0C4CF42984398F894B2CF429A43980B
:10010400F894AECF7894ACCF7894AACF4298439A1F
:10011400F894A6CF7894A4CF7894A2CF7894A0CF63
:1001240078949ECF78949CCF78949ACF789498CFF3
:10013400789496CF789494CF789492CF789490CF03
:1001440008EB1AEF0093850010938400199A189510
:00000001FF
