:020000020000FC
:1000000000C008E304B9002705B945D060E0A7E0C7
:100010004A2F50E075D04FD071E000C0A62FB7E056
:10002000BA1B4B2F50E095D0713009F006C0639594
:10003000673040F070E06A9505C06A950AF002C02A
:1000400071E06395A62FB7E0BA1B4B2F50E058D054
:1000500032D001D0E3CF0F931F932F9302E318EC1C
:100060002AEF2A95F1F71A95D9F70A95C1F72F913A
:100070001F910F9108950F931F93102F08E0111FE8
:1000800010F42B9A01C02B982D9A2D980A95B9F748
:100090001F910F9108950F931F93CF93DF9316E451
:1000A000C0E0D1E0002709931A95E9F7DF91CF91DD
:1000B0001F910F9108950F931F932F933F93CF9309
:1000C000DF9320E03AE0C0E0D1E0239FC00DD11DD6
:1000D0000991D1DF3A95E1F700E8322F303019F07D
:1000E00006953A95FBCFC7DF2C9A2C98239527309D
:1000F00048F3DF91CF913F912F911F910F91089578
:100100000F931F932F93CF93DF9308D0012B088376
:10011000DF91CF912F911F910F9108950F931F930E
:100120002F93C0E0D1E00AE0409FC00DD11D18E040
:10013000511718F0511B2196FBCF20E8552319F0D9
:1001400026955A95FBCF0881122F2F911F910F9161
:1001500008950F93CF93DF93E1DF2FEF1227012351
:0A0160000883DF91CF910F910895FD
:00000001FF
