:020000020000FC
:0200000051C1EC
:0200340066C1A3
:100040005BC108E304B92B982C982D98EF93FF938C
:100050000F931F93E0E0F1E000E016E401931A959E
:10006000E9F70F911F91FF91EF9108950F921F9261
:100070000F931F934F93EF93FF930FB70F93F1E0FD
:10008000E0E005E0089FE00D0AE041910E94670072
:10009000063011F47E961C9A0A95B9F740E882FD65
:1000A000429580FD469581FF02C0469546950E9487
:1000B00067001C9A8A950CF486E00F910FBFFF91A0
:1000C000EF914F911F910F911F900F90189518E08D
:1000D0002B9840FB0EF42B9A1D9A1D9A46951A9563
:1000E000B9F708954BE054E163E035D008950F93DC
:1000F0001F93042F152F643029F41A950AF019C0A4
:1001000017E217C0633031F41395183209F011C0AB
:1001100010E00FC0613029F40A950AF00AC00DE022
:1001200008C0623031F403950E3009F002C000E0DF
:1001300000C00E94A100402F512F0DD01F910F91A0
:1001400008954398CF93DF930FD010940120088235
:10015000CF91DF910895CF93DF9306D098D00128F7
:100160000882DF91CF9108950F932F923F92242E12
:10017000352EC0E0D1E0222019F025962A94FBCF3D
:1001800008E0301618F0301A2196FBCF01E033203A
:1001900019F0000F3A94FBCF0880102E3F902F905B
:1001A0000F9108950FE010EF00000BB900001AB98D
:1001B000089500004A9B17C04B9B05C0499B23C074
:1001C000489B31C0089510EF0FE000001BB90000FC
:1001D0000AB900004F9B47C04E9B3BC04D9B43C09C
:1001E0004C9B41C0089510EF0FE000001BB90000C8
:1001F0000AB900004F9B27C04E9B35C04D9B26C0BF
:100200004C9B31C0089510EF0FE000001BB90000B7
:100210000AB900004F9B27C04E9B1EC04D9B23C0B8
:100220004C9B21C0089510EF0FE000001BB90000A7
:100230000AB900004F9B13C04E9B15C04D9B13C0C5
:100240004C9B10C0089561E0ADDF089562E0AADF25
:10025000089563E0A7DF089564E0A4DF089565E0F2
:10026000A1DF08951FC09EDF0895EF93FF930F93C2
:100270001F93E0E0F1E015E00FEF01931A95E9F725
:1002800016E025E01F910F91FF91EF9108950F93D4
:100290001F93002D112D0123002319F40F911F919D
:1002A0000895E0CF08E00EBF0FEF0DBF3B9A4398D3
:1002B0003A9A4298C6DE76DFC9DE70E0709380001D
:1002C00073E075BD76E076BD71E070936E0000E07E
:1002D0000093800004E0009381000FE0009385000C
:1002E0000FEF0093840001E000936F0078940E9468
:1002F00035010E947200FFCF429876E076BDB6DEEF
:1003000018950FE0009385000FEF0093840051DFF4
:04031000EEDE189570
:00000001FF
