:020000020000FC
:0200000018C323
:1000400033C30F9308E304B92B982C982D980F9184
:100050000895EF93FF930F931F93E0E0F1E000E02A
:1000600016E401931A95E9F70F911F91FF91EF9113
:1000700008950F921F920F931F934F93EF93FF9347
:100080000FB70F93F1E0E0E005E0089FE00D0AE014
:1000900041910E946A00063011F47E961C9A0A95DE
:1000A000B9F740E882FD429580FD469581FF02C088
:1000B000469546950E946A001C9A8A950CF486E043
:1000C0000F910FBFFF91EF914F911F910F911F90D3
:1000D0000F90189518E02B9840FB0EF42B9A1D9A60
:1000E0001D9A46951A95B9F7089546E05AE060E0E2
:1000F00034D008950F931F93042F152F643029F4E3
:100100001A950AF019C017E217C0633031F413953D
:10011000183209F011C010E00FC0613029F40A95BF
:100120000AF00AC00DE008C0623031F403950E30C9
:1001300009F002C000E000C00E94A400402F512F2F
:100140000CD01F910F910895CF93DF9314D010948A
:1001500001200882CF91DF910895CF93DF930F9212
:100160001F9209D0FED007D0012808820F901F905F
:10017000DF91CF9108950F932F923F92242E352E29
:10018000C0E0D1E0222019F025962A94FBCF08E0A8
:10019000301618F0301A2196FBCF01E0332019F009
:1001A000000F3A94FBCF0880102E3F902F900F91B4
:1001B00008950F931F930FE010EF00000BB900009C
:1001C0001AB90F911F91089500004A9B17C04B9BCD
:1001D00005C0499B23C0489B31C0089510EF0FE034
:1001E00000001BB900000AB900004F9B91C04E9B54
:1001F0008FC04D9B8DC04C9B8AC0089510EF0FE0BF
:1002000000001BB900000AB900004F9B81C04E9B43
:100210007FC04D9B7DC04C9B7BC0089510EF0FE0CD
:1002200000001BB900000AB900004F9B71C04E9B33
:100230006FC04D9B6DC04C9B6DC0089510EF0FE0DB
:1002400000001BB900000AB900004F9B61C04E9B23
:100250005FC04D9B5DC04C9B5BC0089500004A9BF6
:1002600017C04B9B05C0499B23C0489B31C00895D4
:1002700010EF0FE000001BB900000AB900004F9B0F
:1002800047C04E9B45C04D9B43C04C9B41C0089509
:1002900010EF0FE000001BB900000AB900004F9BEF
:1002A00037C04E9B2BC04D9B33C04C9B31C0089533
:1002B00010EF0FE000001BB900000AB900004F9BCF
:1002C00017C04E9B25C04D9B16C04C9B21C0089566
:1002D00010EF0FE000001BB900000AB900004F9BAF
:1002E00017C04E9B0EC04D9B13C04C9B0DC0089574
:1002F00061E05FDF089562E05CDF089563E059DF4D
:10030000089564E056DF089560E053DF0895B4C1B6
:1003100050DF08958EC1EF93FF930F931F93E0E09A
:10032000F1E015E00FEF01931A95E9F7E0E0F1E055
:10033000F29612E001931A95E9F721E01CE021936F
:100340003496220F1A95D9F7E9E0F1E021E014E0A4
:10035000219334961A95E1F71F910F91FF91EF9138
:1003600008950F931F93002D112D0123002319F4DD
:100370000F911F9108950F911F9195D0213019F47D
:100380002030B9F408959FC06F9370E03CE097E28D
:1003900028E60E94DD016F9108950F931F93042DAD
:1003A000152D0123002349F445284C920F911F91EC
:1003B000089573950E94DD0108950F931F930E9485
:1003C0001302132F26950E94F8011417D9F3312F29
:1003D000192F0E940502103029F423950E9405026E
:1003E0001030D9F3912F0E9431020F911F9108957F
:1003F000269512271D3008F40895269516950E941B
:10040000220212271D30C8F70895022F220F0095EF
:1004100020271227183208F40895269516951227DA
:100420001832D8F708951F930F93022F122F269595
:1004300000FB26F916F9102716FB25F925270F9141
:100440001F9108951F930F93022F122F269500FBE3
:1004500024F916F9102714FB25F924270F911F9171
:1004600008952F923F92AF93BF93232E392EA0E091
:10047000B1E0222019F015962A94FBCF08E030163F
:1004800018F0301A1196FBCF01E0332019F0000F5D
:100490003A94FBCF4C90502E0E94CD01BF91AF916A
:1004A0003F902F9008950F931F93032F192F4017FC
:1004B00031F4511721F421E00F911F91089520E0AC
:1004C0000F911F9108950E942900C0E0D2E00DE035
:1004D00009930BE009930FE009930CE009930AE0FC
:1004E000099300E1099305E109930CE0099302E106
:1004F0000993072F099319C00E942900C0E0D2E098
:100500000EE009930CE0099304E1099306E10993D5
:1005100003E109930DE0099300E1099307E10993D1
:1005200002E1099300E1099300C00E94E40060E049
:10053000CAE0D2E0A0E0B1E0A60F6530C0F400E070
:1005400027E018E03A91E2E7F5E0532F519F502D54
:10055000500FE51F10F451E0F50F54915C93159680
:1005600003952A9581F763956A30F9F2E3CF5E9699
:10057000E6CF1F11111111111F00040C1404040403
:100580001F001F11010204081F001F01011F0101AC
:100590001F001111111F010101001F10101F010187
:1005A0001F001F10101F11111F001F11010204084E
:1005B00010001F11111F11111F001F11111F010128
:1005C0001F000000000000000000040A11111F11AC
:1005D00011001F10101F10101F001F1010171111F5
:1005E0001F002020202020203F00111B1511111179
:1005F00011001F11111111111F001F11111F1010D7
:1006000010001F11111F14121100F88080F8080843
:10061000F8001F0404040404040011111111110A4C
:10062000040020202040000000001E11111E1111A6
:100630001E0008E00EBF0FEF0DBF03DDBADD09DDC0
:1006400000E00093800003E005BD06E006BD01E088
:1006500000936E0000E00093800004E000938100AE
:100660000FE0009385000FEF0093840001E00093FA
:100670006F0078940E947C0200E010E0012F20E0DF
:1006800030E040E050E060E070E080E090E0E1DCED
:100690000E948B010E94750015D00E94C401DEDD0E
:1006A00011D028DDDBDDFBCF26E076BD0E943900CE
:1006B000189500E0009385000AEA00938400CEDDDF
:1006C00019DD189506E9071B071B1FEF171B171BE2
:1006D000171B171B22E3271B2A95F1F71A95D1F751
:0606E0000A9599F7089548
:00000001FF
