:020000020000FC
:02000000D1C06D
:02003400E3C027
:10004000D8C008E304B92B982C982D98EF93FF9310
:100050000F931F93E0E0F1E000E016E401931A959E
:10006000E9F70F911F91FF91EF9108950F921F9261
:100070000F931F934F93EF93FF930FB70F93F1E0FD
:10008000E0E005E0089FE00D0AE041910E94670072
:10009000063011F47E961C9A0A95B9F740E882FD65
:1000A000429580FD469581FF02C0469546950E9487
:1000B00067001C9A8A950CF486E00F910FBFFF91A0
:1000C000EF914F911F910F911F900F90189518E08D
:1000D0002B9840FB0EF42B9A1D9A1D9A46951A9563
:1000E000B9F708954BE054E162E036D008950F93DC
:1000F0001F93042F152F643029F41A950AF019C0A4
:1001000017E217C0633031F41395183209F011C0AB
:1001100010E00FC0613029F40A950AF00AC00DE022
:1001200008C0623031F403950E3009F002C000E0DF
:1001300000C00E94A100402F512F0ED01F910F919F
:1001400008954398CF93DF933F930ED030E03883E8
:100150003F91CF91DF910895CF93DF9305D0012890
:100160000882DF91CF9108950F932F923F92242E12
:10017000352EC0E0D1E0222019F025962A94FBCF3D
:1001800008E0301618F0301A2196FBCF01E033203A
:1001900019F0000F3A94FBCF0880102E3F902F905B
:1001A0000F91089508E00EBF0FEF0DBF3B9A4398E3
:1001B0003A9A429846DF4ADF70E07093800073E01D
:1001C00075BD76E076BD71E070936E0000E000933F
:1001D000800004E0009381000FE0009385000FEFA2
:1001E0000093840001E000936F0078940E947200F5
:1001F000FFCF429876E076BD39DF18950FE0009387
:0C02000085000FEF0093840072DF18955A
:00000001FF
